:100000001CC036C035C034C033C032C031C030C06F
:100010002FC02EC02DC02CC02BC02AC029C028C084
:1000200027C026C025C024C023C022C021C020C0B4
:100030001FC01EC032363239330011241FBECFEF2D
:10004000D4E0DEBFCDBF12E0A0E0B1E0E0E8F4E133
:1000500002C005900D92AE34B107D9F712E0AEE4BC
:10006000B2E001C01D92AA35B107E1F76FD506CA0B
:10007000C7CF282F22952F709AE0299F9001112435
:100080008F70820F0895482F6AE0D0D6282F30E075
:1000900084E0220F331F8A95E1F7842FC7D6892F7A
:1000A000822B08951F93DF93CF93CDB7DEB72C97A4
:1000B0000FB6F894DEBF0FBECDBFDE011196E2E4AD
:1000C000F2E08CE001900D928150E1F71092500225
:1000D000809151028F5F809351028C33F0F1109226
:1000E0005102809152028F5F809352028831A8F1B1
:1000F00010925202409156024F5F40935602109167
:100100005502212F30E0C90183709070892B29F4AA
:10011000812F64E68BD6992331F4C90160E971E03F
:10012000A5D6892BD1F48DE18B8390914E02FE01EF
:10013000E90FF11D8181841730F481E0809356022C
:100140009F5F90934E0280914E028C3030F081E0A0
:1001500080934E021F5F109355022C960FB6F894B1
:10016000DEBF0FBECDBFCF91DF911F91089560E03C
:1001700020E030E040E050E080917A00806C809395
:100180007A0080917A0086FDFCCF80917800909172
:100190007900A0E0B0E0280F391F4A1F5B1F6F5F96
:1001A000603851F795E056954795379527959A957C
:1001B000D1F72855324040405040CA01B9012BE1E7
:1001C00030E040E050E013D62AE030E040E050E07C
:1001D00060D6C9010895CF92DF92EF92FF920F93FC
:1001E0001F93DF93CF93CDB7DEB760970FB6F89428
:1001F000DEBF0FBECDBF6C018DB79EB70E970FB699
:10020000F8949EBF0FBE8DBFEDB7FEB731968E013D
:100210000F5F1F4FADB7BEB712961C930E93119789
:1002200020E1E22EF12CF382E28280E091E09583DE
:100230008483809152028683178280915102808745
:10024000118680915002828713868091550284879F
:10025000158641D68DB79EB70E960FB6F8949EBF01
:100260000FBE8DBFD7D4C8012BD5ADB7BEB71E9773
:100270000FB6F894BEBF0FBEADBFEDB7FEB7319657
:1002800012961C930E931197F382E28287E191E01C
:1002900095838483809156028683178280914E02D3
:1002A00080871186C6016AE070E0CCD573876287CB
:1002B000C6016AE070E0C6D5958784870CD68DB7F5
:1002C0009EB70E960FB6F8949EBF0FBE8DBF80E00E
:1002D00062E0E1D4C801F4D460960FB6F894DEBFB2
:1002E0000FBECDBFCF91DF911F910F91FF90EF9087
:1002F000DF90CF900895FF920F931F93182FF92E40
:10030000062F80EA40D5802F41D5812F3FD58F2DF4
:100310003DD565D580E29EE40197F1F71F910F91DD
:10032000FF9008950F931F93082F162F80EA2BD567
:10033000812F2CD5802F2AD552D580E29EE40197BB
:10034000F1F71F910F9108950F931F93182F062F08
:1003500080ED19D5882329F4812F18D5802F16D543
:100360003ED51F910F9108950F931F93182F80EA88
:100370000AD5812F0BD580EA1BD51DD5082F25D591
:10038000182F2DD5312F20E0200F311DC9011F91CD
:100390000F9108951F93182F80EAF5D4812FF6D47A
:1003A00080EA06D512D5182F1AD5812F1F910895EE
:1003B0002F923F924F925F926F927F928F929F9275
:1003C000AF92BF92CF92DF92EF92FF920F931F9363
:1003D000DF93CF93CDB7DEB761970FB6F894DEBF4A
:1003E0000FBECDBF84E0D6DF82958F70809355021B
:1003F00084E0D0DF8F7080934E0282E0CBDF182F35
:1004000083E0C8DF8F70880F111F1127111F810F24
:100410008093560282E0BEDF8F778093520281E0A4
:10042000B9DF8093510286E09FDF80934F0288E01E
:1004300080935702FF24F394882468EC462E512CB5
:100440008E010F5F1F4F50E1652E712C43E4242E67
:1004500041E0342ED7C0F2013197F1F70197D9F777
:100460008DB79EB740970FB6F8949EBF0FBE8DBF55
:10047000EDB7FEB73196ADB7BEB712961C930E938B
:100480001197738262828AE291E0958384838091DE
:1004900055028683178280914E0280871186809153
:1004A0005602828713868091520284871586809136
:1004B0005102868717860FD5ADB7BEB750960FB6D7
:1004C000F894BEBF0FBEADBFA5D3C801F9D38DB799
:1004D0009EB70C970FB6F8949EBF0FBE8DBFEDB7B9
:1004E000FEB73196ADB7BEB712961C930E93119717
:1004F0007382628235822482F68217829086A18678
:10050000B286E386E8D48DB79EB70C960FB6F89402
:100510009EBF0FBE8DBF80E062E0BDD3C801D0D3C7
:1005200018997CC080E036DFF81619F4882483948B
:1005300067C0B8DD8091570217DF6C0180915702C8
:100540008E5F80935702F3945BC0189957C0199B34
:1005500068C054C0F8013197F1F70197D9F75AD321
:1005600084E591E0ADD380E062E095D384E691E04C
:10057000A7D3189927C04ED310E030EAE32E3FE00E
:10058000F32EC7010197F1F780E0612FCBDE42D354
:1005900085E791E095D31F5F1F3F99F73BD386E82E
:1005A00091E08ED380E062E076D386E991E088D353
:1005B00088E99AE328EC30E0F9013197F1F70197E7
:1005C000D9F734C019992FC025D387EA91E078D3A1
:1005D00088E99AE328EC30E0F9013197F1F70197C7
:1005E000D9F724C017D387EB91E06AD388E99AE35F
:1005F000F2013197F1F70197D9F702C0882091F7FE
:10060000189BA3CFC6016AE070E01CD4962EA72EDB
:10061000C6016AE070E016D4B82EE92E88EE93E0A9
:100620001ACF08EC10E088EE93E094CF61960FB6F5
:10063000F894DEBF0FBECDBFCF91DF911F910F9118
:10064000FF90EF90DF90CF90BF90AF909F908F90F2
:100650007F906F905F904F903F902F9008951F93E1
:1006600080ED91D3882311F081E05BC080E08ED3D0
:1006700080ED9ED3A0D3282F2F7722952F701AE0DC
:10068000219F900111248F70820F8093500293D389
:10069000282F2F7722952F70219F900111248F7082
:1006A000820F8093510287D3282F2F7722952F70A6
:1006B000219F900111248F70820F809352027BD36F
:1006C000282F2F7722952F70219F900111248F7052
:1006D000820F809358026FD3282F2F7722952F7087
:1006E000219F900111248F70820F8093560263D353
:1006F000282F2F7722952F70219F900111248F7022
:10070000820F80934E0261D3282F2F7722952F706E
:10071000219F900111248F70820F809355025FD327
:1007200080E01F9108956F927F928F929F92AF9277
:10073000BF92CF92DF92EF92FF920F931F93DF93BE
:10074000CF93CDB7DEB761970FB6F894DEBF0FBE7B
:10075000CDBF80915002882309F48FC188EE93E0C9
:1007600028EC30E0F9013197F1F70197D9F777DFFD
:10077000FEDC31DD189940C019993EC04BD284ECA3
:1007800091E09ED280E006DE2DB73EB72850304083
:100790000FB6F8943EBF0FBE2DBFEDB7FEB7319632
:1007A0008E010F5F1F4FADB7BEB712961C930E930D
:1007B000119721E130E03383228325ED31E0358349
:1007C00024838683178287D32DB73EB7285F3F4F98
:1007D0000FB6F8943EBF0FBE2DBF80E062E05BD243
:1007E000C8016ED288E99AE328EC30E0F90131972C
:1007F000F1F70197D9F741C18091540260E092DD91
:100800008091500260E08EDD8091510261E08ADDCE
:1008100080915602879588278795909152029F77FD
:10082000892B62E07FDD809158028295807F9091D4
:10083000560296959F70892B63E074DD8091550276
:100840008295807F90914E029F70892B64E06ADDD3
:100850008EDC66E050DD88E0809353028091540284
:100860008F5F80935402D6D183EE91E029D280E04D
:1008700091DDD82E7CDC8C017ADC9C018DB79EB793
:100880000C970FB6F8949EBF0FBE8DBFEDB7FEB7A5
:1008900031967E010894E11CF11CADB7BEB71296EB
:1008A000FC92EE92119781E190E09383828382EF34
:1008B00091E095838483D6821782C8016AE070E054
:1008C000C1D271876087C9016AE070E0BBD29387AB
:1008D000828701D32DB73EB7245F3F4F0FB6F89400
:1008E0003EBF0FBE2DBF80E062E0D5D1C701E8D189
:1008F00088E99AE328EC30E0F9013197F1F70197A4
:10090000D9F728EE33E05E010894A11CB11CF0E198
:100910006F2E712CE2EF8E2EE1E09E2E78ECC72E2A
:10092000D12C05C0C6010197F1F7215030402115A7
:100930003105C1F794DE1BDC4EDC80915002882328
:1009400009F056C08091540260E0ECDC10DC60914C
:100950005302D1DC809153028E5F809353028091C9
:1009600054028F5F8093540255D183EE91E0A8D159
:1009700080E010DDF82EFBDB8C01F9DB9C018DB7EC
:100980009EB70C970FB6F8949EBF0FBE8DBFEDB704
:10099000FEB73196ADB7BEB71296BC92AE92119724
:1009A0007382628295828482F6821782C8016AE02D
:1009B00070E048D271876087C9016AE070E042D276
:1009C0009387828788D22DB73EB7245F3F4F0FB6FB
:1009D000F8943EBF0FBE2DBF80E062E05CD1C50140
:1009E0006FD188E99AE3F6013197F1F70197D9F7CA
:1009F000189902C0199B07C080E0CCDC8D3719F034
:100A000028EE33E08FCF06D184EC91E059D180E01D
:100A1000C1DCADB7BEB718970FB6F894BEBF0FBE16
:100A2000ADBFEDB7FEB731968E010F5F1F4F129627
:100A30001C930E93119721E130E03383228323E04E
:100A400032E0358324838683178245D22DB73EB7A3
:100A5000285F3F4F0FB6F8943EBF0FBE2DBF80E01A
:100A600062E019D1C8012CD188E99AE328EC30E082
:100A7000F9013197F1F70197D9F761960FB6F8941C
:100A8000DEBF0FBECDBFCF91DF911F910F91FF90C1
:100A9000EF90DF90CF90BF90AF909F908F907F901E
:100AA0006F9008951F93182F80ED6DD1882311F05A
:100AB00010E007C0812F6AD180ED7AD186D1182F3E
:100AC0008ED1812F1F9108951F9380E0EBDF182FA7
:100AD00080ED59D1882311F081E027C080E056D104
:100AE00017FF05C080915002CEDA806804C0809163
:100AF0005002C9DA8F774AD180915102C4DA46D1C7
:100B000080915202C0DA42D1809158023FD1809147
:100B10005602B9DA3BD180914E02B5DA37D18091D5
:100B20005502B1DA33D15BD180E01F9108951F9354
:100B3000182F80E0B7DF112319F0682F6F7702C0FC
:100B4000682F606880E000DC1F9108950F931F9369
:100B5000CF93DF9333D065D081E06AE002D181E0AA
:100B6000E6DF10927C0080917C00806C80937C009A
:100B700080917C00886080937C0086E080937A007E
:100B800080917A00806C80937A0028EE33E0C8EC84
:100B9000D0E005C0CE010197F1F72150304021157A
:100BA0003105C1F7E4DA8C015ADDC80114DB189B6A
:100BB000FFDB199BB8DD28EE33E0ECCF20982198BD
:100BC000289A299A08959BB19F709BB99BB1807F09
:100BD000892B8BB95B9A85E38A95F1F75B98089529
:100BE0001F93182F5A9AEFDF812F8295807FEBDFBA
:100BF0008AE78A95F1F71F9108951F93182F5A9845
:100C0000E2DF812F8295807FDEDF80E78A95F1F732
:100C10001F91089581E0F1DF80EA9FE00197F1F7ED
:100C200008950F931F938AB18C6F8AB98BB183702B
:100C30008BB980E395E70197F1F780E3C4DF00E12A
:100C400017E2C8010197F1F75B9A25E3822F8A9595
:100C5000F1F75B9880ED97E0FC013197F1F75B9A33
:100C60002A95F1F75B980197F1F780E2ACDFC801B4
:100C70000197F1F788E2C1DF8CE0BFDF86E0BDDFDE
:100C8000C9DF1F910F91089582E0B7DF80EA9FE0EE
:100C90000197F1F70895623061F0633018F4613024
:100CA00071F405C0633039F0643049F406C08058EF
:100CB00005C0805403C0805701C080539EDF089553
:100CC000CF93DF93EC0102C021968ADF88818823CD
:100CD000D9F7DF91CF9108950F931F93CF93DF93AF
:100CE0008B01880F880F880F806487DFC0E0D0E019
:100CF000F801EC0FFD1F808173DF2196C830D1050C
:100D0000B9F7DF91CF911F910F910895982F84EA41
:100D10008093BC008091BC0087FFFCCF8091B9001C
:100D2000887F883039F08091B900887F803111F058
:100D300081E008959093BB0084E88093BC0080918B
:100D4000BC0087FFFCCF8091B900887F883139F0E3
:100D50008091B900887F803411F082E0089580E0AE
:100D600008956B3008F46BE03D983C98882319F0A7
:100D7000459A449A02C0459844986093B80081E02F
:100D80008093B90008958E7FC1DF08958093BB00E2
:100D900084E88093BC008091BC0087FFFCCF8091E9
:100DA000B90090E0887F883209F091E0892F08959A
:100DB0008160ACDF089584EC8093BC008091BC001E
:100DC00087FFFCCF8091BB00089584E88093BC002E
:100DD0008091BC0087FFFCCF8091BB00089584E91F
:100DE0008093BC008091BC0084FDFCCF0895629F7D
:100DF000D001739FF001829FE00DF11D649FE00D13
:100E0000F11D929FF00D839FF00D749FF00D659F73
:100E1000F00D9927729FB00DE11DF91F639FB00D72
:100E2000E11DF91FBD01CF0111240895991B79E03F
:100E300004C0991F961708F0961B881F7A95C9F76A
:100E400080950895AA1BBB1B51E107C0AA1FBB1FB9
:100E5000A617B70710F0A61BB70B881F991F5A9546
:100E6000A9F780959095BC01CD01089597FB092EB7
:100E700007260AD077FD04D0E5DF06D000201AF45B
:100E8000709561957F4F0895F6F7909581959F4FE6
:100E90000895A1E21A2EAA1BBB1BFD010DC0AA1FBB
:100EA000BB1FEE1FFF1FA217B307E407F50720F0D3
:100EB000A21BB30BE40BF50B661F771F881F991F4E
:100EC0001A9469F760957095809590959B01AC0197
:100ED000BD01CF010895AEE0B0E0E0E7F7E0A5C2C4
:100EE0000D891E898F89988D97FF02C080E090E858
:100EF00001979E838D831A83098386E08C839E01EC
:100F0000255E3F4FCE010196698D7A8DA90111D0E2
:100F10004D815E8157FD0AC02F81388542175307E6
:100F20000CF49A01020F131FF80110822E96E4E0D0
:100F300098C2ABE0B0E0EEE9F7E069C23C012B01FA
:100F40005A01FC0117821682838181FD03C06FEF75
:100F50007FEFB9C19AE0892E1E010894211C311C33
:100F6000F3012381F20123FD859123FF81912F015C
:100F7000882309F4A5C1853239F423FD859123FF27
:100F800081912F01853221F490E0B301B6D1E8CFF1
:100F9000982FFF24EE249924FFE1FF15D0F09B3217
:100FA00069F09C3228F4903259F0933291F40EC0DB
:100FB0009D3249F0903369F441E024C052E0F52AB3
:100FC00084E0F82A28C098E0F92A25C0E0E1FE2A4A
:100FD00022C0F7FC29C0892F80538A3070F4F6FEB6
:100FE00005C0989C902C1124980E15C0E89CE02C0C
:100FF0001124E80EF0E2FF2A0EC09E3229F4F6FC1E
:101000005FC140E4F42A07C09C3619F450E8F52A81
:1010100002C0983649F4F20123FD959123FF919186
:101020002F01992309F0B8CF892F8554833018F008
:101030008052833038F444E050E0A40EB51E5FE3E4
:1010400059830FC0933631F0933779F0933509F017
:1010500052C01FC0F5018081898342E050E0A40E98
:10106000B51E610101E010E011C0F501C080D18022
:10107000F6FC03C06FEF7FEF02C0692D70E042E025
:1010800050E0A40EB51EC6012DD18C015FE7F522FC
:1010900013C0F501C080D180F6FC03C06FEF7FEF75
:1010A00002C0692D70E042E050E0A40EB51EC601FA
:1010B0000ED18C0150E8F52AF3FE06C018C080E27C
:1010C00090E0B3011AD1EA948E2D90E00817190729
:1010D000B0F30DC0F601F7FC8591F7FE81916F0129
:1010E00090E0B3010AD1E110EA94015010400115DB
:1010F000110581F7E2C0943611F0993661F5F7FEDB
:1011000008C0F501208131814281538184E090E063
:101110000AC0F501808191819C01442737FD4095EB
:10112000542F82E090E0A80EB91E9FE6F92257FFE7
:1011300009C050954095309521953F4F4F4F5F4FD7
:10114000E0E8FE2ACA01B901A1012AE030E001D19C
:10115000D82ED2183FC0953729F41F2D1F7E2AE0C4
:1011600030E01DC01F2D197F9F3661F0903720F4AD
:10117000983509F0A5C00FC0903739F0983709F0BD
:101180009FC004C028E030E00AC0106114FD146064
:1011900020E130E004C014FD166020E132E017FFCA
:1011A00008C0F501608171818281938144E050E043
:1011B00008C0F50180819181BC0180E090E042E0AF
:1011C00050E0A40EB51EA101C4D0D82ED2188FE7CE
:1011D000F82EF122F6FE0BC05EEFF522D91438F49A
:1011E000F4FE07C0F2FC05C08FEEF82202C01D2DF0
:1011F00001C0192DF4FE0DC0FE01ED0DF11D808121
:10120000803319F499EEF92208C01F5FF2FE05C081
:1012100003C08F2D867809F01F5F0F2DF3FC13C0DC
:10122000F0FE0EC01E1510F09D2C0AC09D2C9E0CC9
:10123000911A1E2D05C080E290E0B3015ED01F5FC1
:101240001E15C8F304C01E1510F4E11A01C0EE24E7
:1012500004FF0EC080E390E0B3014FD002FF1BC03B
:1012600001FD03C088E790E00EC088E590E00BC068
:10127000802F867881F001FF02C08BE201C080E2FE
:10128000F7FC8DE290E0B30138D005C080E390E038
:10129000B30133D09A94D914C8F3DA94F101ED0D67
:1012A000F11D808190E0B30128D0DD20B1F705C0A9
:1012B00080E290E0B30121D0EA94EE20C9F750CE4D
:1012C000F30166817781CB012B96E2E1BCC0FC0182
:1012D0000590615070400110D8F7809590958E0F61
:1012E0009F1F0895FC016150704001900110D8F7D4
:1012F000809590958E0F9F1F08950F931F93CF9306
:10130000DF938C01EB018B8181FF1BC082FF0DC03D
:101310002E813F818C819D812817390764F4E881F3
:10132000F9810193F983E88306C0E885F985802F68
:101330000995892B31F48E819F8101969F838E833D
:1013400002C00FEF1FEFC801DF91CF911F910F91E6
:101350000895FA01AA27283051F1203181F1E8944B
:101360006F936E7F6E5F7F4F8F4F9F4FAF4FB1E098
:101370003ED0B4E03CD0670F781F891F9A1FA11D93
:10138000680F791F8A1F911DA11D6A0F711D811D94
:10139000911DA11D20D009F468943F912AE0269F59
:1013A00011243019305D3193DEF6CF010895462FB8
:1013B0004770405D4193B3E00FD0C9F7F6CF462F99
:1013C0004F70405D4A3318F0495D31FD4052419302
:1013D00002D0A9F7EACFB4E0A695979587957795BF
:1013E0006795BA95C9F700976105710508959B0146
:1013F000AC010A2E06945795479537952795BA95CF
:10140000C9F7620F731F841F951FA01D08952F92A7
:101410003F924F925F926F927F928F929F92AF9284
:10142000BF92CF92DF92EF92FF920F931F93CF93D1
:10143000DF93CDB7DEB7CA1BDB0B0FB6F894DEBF68
:101440000FBECDBF09942A88398848885F846E848E
:101450007D848C849B84AA84B984C884DF80EE80D8
:10146000FD800C811B81AA81B981CE0FD11D0FB6E1
:10147000F894DEBF0FBECDBFED010895F894FFCF05
:10148000253032643A253032643A253032642020E7
:1014900032302530326400253032642E25303264FB
:1014A000202025642E2564204300253032642F251A
:1014B0003032642F2530326420253032643A2530B2
:1014C0003264004E6F3A2025642E202025642E259C
:1014D00064204300205265736574204D656D6F7202
:1014E00079203F004B6579313A20592E204B6579A0
:1014F000323A204E00436C656172696E67204D651B
:101500006D6F72792E00204D656D6F727920436C7E
:10151000656172656400457869746E672052656123
:1015200064204D6F646500202052656164204D6F1A
:101530006465204F6666004E6F204D6F72652044D3
:101540006174610045786974696E67204C6F67202B
:101550004D6F646500496E206D656D6F72793A203C
:101560002564005265636F7264696E67204461741C
:1015700061004E6F2E3A2025642E2025642E2564AE
:10158000204300496E206D656D6F72793A202532D7
:1015900064004D6F6E0054756500576564005468B3
:1015A0007500467269005361740053756E00457290
:1015B0007200120216021A021E02220226022A02D9
:0E15C0002E021F1C1F1E1F1E1F1F1E1F1E1F80
:00000001FF
